{
  "_format": "hh-sol-artifact-1",
  "contractName": "MiniLottoV2",
  "sourceName": "contracts/MiniLottoV2.sol",
  "abi": [
    {
      "anonymous": false,
      "inputs": [
        {
          "indexed": false,
          "internalType": "address",
          "name": "previousAdmin",
          "type": "address"
        },
        {
          "indexed": false,
          "internalType": "address",
          "name": "newAdmin",
          "type": "address"
        }
      ],
      "name": "AdminChanged",
      "type": "event"
    },
    {
      "anonymous": false,
      "inputs": [
        {
          "indexed": true,
          "internalType": "address",
          "name": "beacon",
          "type": "address"
        }
      ],
      "name": "BeaconUpgraded",
      "type": "event"
    },
    {
      "anonymous": false,
      "inputs": [
        {
          "indexed": false,
          "internalType": "uint256",
          "name": "id",
          "type": "uint256"
        }
      ],
      "name": "NewGame",
      "type": "event"
    },
    {
      "anonymous": false,
      "inputs": [
        {
          "indexed": true,
          "internalType": "address",
          "name": "implementation",
          "type": "address"
        }
      ],
      "name": "Upgraded",
      "type": "event"
    },
    {
      "anonymous": false,
      "inputs": [
        {
          "indexed": false,
          "internalType": "address",
          "name": "",
          "type": "address"
        },
        {
          "indexed": false,
          "internalType": "uint256",
          "name": "prize",
          "type": "uint256"
        }
      ],
      "name": "Winner",
      "type": "event"
    },
    {
      "inputs": [
        {
          "internalType": "uint256",
          "name": "gameId",
          "type": "uint256"
        }
      ],
      "name": "buyTicket",
      "outputs": [],
      "stateMutability": "payable",
      "type": "function"
    },
    {
      "inputs": [
        {
          "internalType": "uint256",
          "name": "capacity",
          "type": "uint256"
        },
        {
          "internalType": "uint256",
          "name": "ticketPrice",
          "type": "uint256"
        },
        {
          "internalType": "uint256",
          "name": "expiration",
          "type": "uint256"
        }
      ],
      "name": "createGame",
      "outputs": [],
      "stateMutability": "nonpayable",
      "type": "function"
    },
    {
      "inputs": [
        {
          "internalType": "uint256",
          "name": "",
          "type": "uint256"
        }
      ],
      "name": "games",
      "outputs": [
        {
          "internalType": "uint256",
          "name": "capacity",
          "type": "uint256"
        },
        {
          "internalType": "uint256",
          "name": "ticketPrice",
          "type": "uint256"
        },
        {
          "internalType": "uint256",
          "name": "expiration",
          "type": "uint256"
        }
      ],
      "stateMutability": "view",
      "type": "function"
    },
    {
      "inputs": [
        {
          "internalType": "uint256",
          "name": "gameId",
          "type": "uint256"
        }
      ],
      "name": "getParticipants",
      "outputs": [
        {
          "internalType": "address[]",
          "name": "",
          "type": "address[]"
        }
      ],
      "stateMutability": "view",
      "type": "function"
    },
    {
      "inputs": [],
      "name": "proxiableUUID",
      "outputs": [
        {
          "internalType": "bytes32",
          "name": "",
          "type": "bytes32"
        }
      ],
      "stateMutability": "view",
      "type": "function"
    },
    {
      "inputs": [
        {
          "internalType": "uint256",
          "name": "gameId",
          "type": "uint256"
        }
      ],
      "name": "refund",
      "outputs": [],
      "stateMutability": "nonpayable",
      "type": "function"
    },
    {
      "inputs": [
        {
          "internalType": "address",
          "name": "newImplementation",
          "type": "address"
        }
      ],
      "name": "upgradeTo",
      "outputs": [],
      "stateMutability": "nonpayable",
      "type": "function"
    },
    {
      "inputs": [
        {
          "internalType": "address",
          "name": "newImplementation",
          "type": "address"
        },
        {
          "internalType": "bytes",
          "name": "data",
          "type": "bytes"
        }
      ],
      "name": "upgradeToAndCall",
      "outputs": [],
      "stateMutability": "payable",
      "type": "function"
    }
  ],
  "bytecode": "0x60a06040523073ffffffffffffffffffffffffffffffffffffffff1660809073ffffffffffffffffffffffffffffffffffffffff16815250600060015534801561004857600080fd5b506080516126ff61008060003960008181610492015281816105200152818161061a015281816106a8015261075801526126ff6000f3fe60806040526004361061007b5760003560e01c806352d1902d1161004e57806352d1902d1461012d57806367dd74ca14610158578063c1e3bd3e14610174578063c2741521146101b15761007b565b8063117a5b9014610080578063278ecde1146100bf5780633659cfe6146100e85780634f1ef28614610111575b600080fd5b34801561008c57600080fd5b506100a760048036038101906100a291906114e7565b6101da565b6040516100b693929190611523565b60405180910390f35b3480156100cb57600080fd5b506100e660048036038101906100e191906114e7565b610214565b005b3480156100f457600080fd5b5061010f600480360381019061010a91906115b8565b610490565b005b61012b6004803603810190610126919061172b565b610618565b005b34801561013957600080fd5b50610142610754565b60405161014f91906117a0565b60405180910390f35b610172600480360381019061016d91906114e7565b61080d565b005b34801561018057600080fd5b5061019b600480360381019061019691906114e7565b6109d7565b6040516101a89190611879565b60405180910390f35b3480156101bd57600080fd5b506101d860048036038101906101d3919061189b565b610a8a565b005b600081815481106101ea57600080fd5b90600052602060002090600402016000915090508060000154908060010154908060030154905083565b600080549050811061025b576040517f08c379a00000000000000000000000000000000000000000000000000000000081526004016102529061194b565b60405180910390fd5b60008082815481106102705761026f61196b565b5b9060005260206000209060040201905080600001548160020180549050106102cd576040517f08c379a00000000000000000000000000000000000000000000000000000000081526004016102c4906119e6565b60405180910390fd5b42816003015410610313576040517f08c379a000000000000000000000000000000000000000000000000000000000815260040161030a90611a52565b60405180910390fd5b60005b6000838154811061032a5761032961196b565b5b90600052602060002090600402016002018054905081101561048b57600080848154811061035b5761035a61196b565b5b9060005260206000209060040201600201828154811061037e5761037d61196b565b5b9060005260206000200160009054906101000a900473ffffffffffffffffffffffffffffffffffffffff1673ffffffffffffffffffffffffffffffffffffffff16600085815481106103d3576103d261196b565b5b9060005260206000209060040201600101546040516103f190611aa3565b60006040518083038185875af1925050503d806000811461042e576040519150601f19603f3d011682016040523d82523d6000602084013e610433565b606091505b5050905080610477576040517f08c379a000000000000000000000000000000000000000000000000000000000815260040161046e90611b04565b60405180910390fd5b50808061048390611b53565b915050610316565b505050565b7f000000000000000000000000000000000000000000000000000000000000000073ffffffffffffffffffffffffffffffffffffffff163073ffffffffffffffffffffffffffffffffffffffff160361051e576040517f08c379a000000000000000000000000000000000000000000000000000000000815260040161051590611c0d565b60405180910390fd5b7f000000000000000000000000000000000000000000000000000000000000000073ffffffffffffffffffffffffffffffffffffffff1661055d610c70565b73ffffffffffffffffffffffffffffffffffffffff16146105b3576040517f08c379a00000000000000000000000000000000000000000000000000000000081526004016105aa90611c9f565b60405180910390fd5b6105bc81610cc7565b61061581600067ffffffffffffffff8111156105db576105da611600565b5b6040519080825280601f01601f19166020018201604052801561060d5781602001600182028036833780820191505090505b506000610d3f565b50565b7f000000000000000000000000000000000000000000000000000000000000000073ffffffffffffffffffffffffffffffffffffffff163073ffffffffffffffffffffffffffffffffffffffff16036106a6576040517f08c379a000000000000000000000000000000000000000000000000000000000815260040161069d90611c0d565b60405180910390fd5b7f000000000000000000000000000000000000000000000000000000000000000073ffffffffffffffffffffffffffffffffffffffff166106e5610c70565b73ffffffffffffffffffffffffffffffffffffffff161461073b576040517f08c379a000000000000000000000000000000000000000000000000000000000815260040161073290611c9f565b60405180910390fd5b61074482610cc7565b61075082826001610d3f565b5050565b60007f000000000000000000000000000000000000000000000000000000000000000073ffffffffffffffffffffffffffffffffffffffff163073ffffffffffffffffffffffffffffffffffffffff16146107e4576040517f08c379a00000000000000000000000000000000000000000000000000000000081526004016107db90611d31565b60405180910390fd5b7f360894a13ba1a3210667c828492db98dca3e2076cc3735a920a3ca505d382bbc60001b905090565b6000805490508110610854576040517f08c379a000000000000000000000000000000000000000000000000000000000815260040161084b9061194b565b60405180910390fd5b60008082815481106108695761086861196b565b5b9060005260206000209060040201905080600001548160020180549050106108c6576040517f08c379a00000000000000000000000000000000000000000000000000000000081526004016108bd90611d9d565b60405180910390fd5b4281600301541161090c576040517f08c379a000000000000000000000000000000000000000000000000000000000815260040161090390611e09565b60405180910390fd5b80600101543414610952576040517f08c379a000000000000000000000000000000000000000000000000000000000815260040161094990611e9b565b60405180910390fd5b80600201339080600181540180825580915050600190039060005260206000200160009091909190916101000a81548173ffffffffffffffffffffffffffffffffffffffff021916908373ffffffffffffffffffffffffffffffffffffffff16021790555080600001548160020180549050036109d3576109d282610ead565b5b5050565b6060600082815481106109ed576109ec61196b565b5b9060005260206000209060040201600201805480602002602001604051908101604052809291908181526020018280548015610a7e57602002820191906000526020600020905b8160009054906101000a900473ffffffffffffffffffffffffffffffffffffffff1673ffffffffffffffffffffffffffffffffffffffff1681526020019060010190808311610a34575b50505050509050919050565b60018311610acd576040517f08c379a0000000000000000000000000000000000000000000000000000000008152600401610ac490611f07565b60405180910390fd5b60008211610b10576040517f08c379a0000000000000000000000000000000000000000000000000000000008152600401610b0790611f73565b60405180910390fd5b6000811480610b1e57504281115b610b5d576040517f08c379a0000000000000000000000000000000000000000000000000000000008152600401610b5490611fdf565b60405180910390fd5b7fa0b7f6f22bb4f69adc52dd16ffe2a964ab8b577be274247fa9a1547b03ce3e55600080549050604051610b919190611fff565b60405180910390a160006040518060800160405280858152602001848152602001600067ffffffffffffffff811115610bcd57610bcc611600565b5b604051908082528060200260200182016040528015610bfb5781602001602082028036833780820191505090505b50815260200183815250908060018154018082558091505060019003906000526020600020906004020160009091909190915060008201518160000155602082015181600101556040820151816002019080519060200190610c5e9291906113f6565b50606082015181600301555050505050565b6000610c9e7f360894a13ba1a3210667c828492db98dca3e2076cc3735a920a3ca505d382bbc60001b6110bc565b60000160009054906101000a900473ffffffffffffffffffffffffffffffffffffffff16905090565b610ccf6110c6565b73ffffffffffffffffffffffffffffffffffffffff163373ffffffffffffffffffffffffffffffffffffffff1614610d3c576040517f08c379a0000000000000000000000000000000000000000000000000000000008152600401610d3390612066565b60405180910390fd5b50565b610d6b7f4910fdfa16fed3260ed0e7147f7cc6da11a60208b5b9406d12a635614ffd914360001b61111d565b60000160009054906101000a900460ff1615610d8f57610d8a83611127565b610ea8565b8273ffffffffffffffffffffffffffffffffffffffff166352d1902d6040518163ffffffff1660e01b8152600401602060405180830381865afa925050508015610df757506040513d601f19601f82011682018060405250810190610df491906120b2565b60015b610e36576040517f08c379a0000000000000000000000000000000000000000000000000000000008152600401610e2d90612151565b60405180910390fd5b7f360894a13ba1a3210667c828492db98dca3e2076cc3735a920a3ca505d382bbc60001b8114610e9b576040517f08c379a0000000000000000000000000000000000000000000000000000000008152600401610e92906121e3565b60405180910390fd5b50610ea78383836111e0565b5b505050565b6000808281548110610ec257610ec161196b565b5b90600052602060002090600402019050600081600101548260020180549050610eeb9190612203565b90506000428360020160016000815480929190610f0790611b53565b91905055604051602001610f1d93929190612384565b6040516020818303038152906040528051906020012060001c90506000836002018054905082610f4d91906123ec565b90507f9c2270628a9b29d30ae96b6c4c14ed646ee134febdce38a5b77f2bde9cea2e20846002018281548110610f8657610f8561196b565b5b9060005260206000200160009054906101000a900473ffffffffffffffffffffffffffffffffffffffff1684604051610fc092919061242c565b60405180910390a16000846002018281548110610fe057610fdf61196b565b5b9060005260206000200160009054906101000a900473ffffffffffffffffffffffffffffffffffffffff1673ffffffffffffffffffffffffffffffffffffffff168460405161102e90611aa3565b60006040518083038185875af1925050503d806000811461106b576040519150601f19603f3d011682016040523d82523d6000602084013e611070565b606091505b50509050806110b4576040517f08c379a00000000000000000000000000000000000000000000000000000000081526004016110ab906124a1565b60405180910390fd5b505050505050565b6000819050919050565b60006110f47fb53127684a568b3173ae13b9f8a6016e243e63b6e8ee1178d6a717850b5d610360001b6110bc565b60000160009054906101000a900473ffffffffffffffffffffffffffffffffffffffff16905090565b6000819050919050565b6111308161120c565b61116f576040517f08c379a000000000000000000000000000000000000000000000000000000000815260040161116690612533565b60405180910390fd5b8061119c7f360894a13ba1a3210667c828492db98dca3e2076cc3735a920a3ca505d382bbc60001b6110bc565b60000160006101000a81548173ffffffffffffffffffffffffffffffffffffffff021916908373ffffffffffffffffffffffffffffffffffffffff16021790555050565b6111e98361122f565b6000825111806111f65750805b1561120757611205838361127e565b505b505050565b6000808273ffffffffffffffffffffffffffffffffffffffff163b119050919050565b61123881611127565b8073ffffffffffffffffffffffffffffffffffffffff167fbc7cd75a20ee27fd9adebab32041f755214dbc6bffa90cc0225b39da2e5c2d3b60405160405180910390a250565b60606112a383836040518060600160405280602781526020016126a3602791396112ab565b905092915050565b60606000808573ffffffffffffffffffffffffffffffffffffffff16856040516112d591906125b9565b600060405180830381855af49150503d8060008114611310576040519150601f19603f3d011682016040523d82523d6000602084013e611315565b606091505b509150915061132686838387611331565b925050509392505050565b6060831561139357600083510361138b5761134b8561120c565b61138a576040517f08c379a00000000000000000000000000000000000000000000000000000000081526004016113819061261c565b60405180910390fd5b5b82905061139e565b61139d83836113a6565b5b949350505050565b6000825111156113b95781518083602001fd5b806040517f08c379a00000000000000000000000000000000000000000000000000000000081526004016113ed9190612680565b60405180910390fd5b82805482825590600052602060002090810192821561146f579160200282015b8281111561146e5782518260006101000a81548173ffffffffffffffffffffffffffffffffffffffff021916908373ffffffffffffffffffffffffffffffffffffffff16021790555091602001919060010190611416565b5b50905061147c9190611480565b5090565b5b80821115611499576000816000905550600101611481565b5090565b6000604051905090565b600080fd5b600080fd5b6000819050919050565b6114c4816114b1565b81146114cf57600080fd5b50565b6000813590506114e1816114bb565b92915050565b6000602082840312156114fd576114fc6114a7565b5b600061150b848285016114d2565b91505092915050565b61151d816114b1565b82525050565b60006060820190506115386000830186611514565b6115456020830185611514565b6115526040830184611514565b949350505050565b600073ffffffffffffffffffffffffffffffffffffffff82169050919050565b60006115858261155a565b9050919050565b6115958161157a565b81146115a057600080fd5b50565b6000813590506115b28161158c565b92915050565b6000602082840312156115ce576115cd6114a7565b5b60006115dc848285016115a3565b91505092915050565b600080fd5b600080fd5b6000601f19601f8301169050919050565b7f4e487b7100000000000000000000000000000000000000000000000000000000600052604160045260246000fd5b611638826115ef565b810181811067ffffffffffffffff8211171561165757611656611600565b5b80604052505050565b600061166a61149d565b9050611676828261162f565b919050565b600067ffffffffffffffff82111561169657611695611600565b5b61169f826115ef565b9050602081019050919050565b82818337600083830152505050565b60006116ce6116c98461167b565b611660565b9050828152602081018484840111156116ea576116e96115ea565b5b6116f58482856116ac565b509392505050565b600082601f830112611712576117116115e5565b5b81356117228482602086016116bb565b91505092915050565b60008060408385031215611742576117416114a7565b5b6000611750858286016115a3565b925050602083013567ffffffffffffffff811115611771576117706114ac565b5b61177d858286016116fd565b9150509250929050565b6000819050919050565b61179a81611787565b82525050565b60006020820190506117b56000830184611791565b92915050565b600081519050919050565b600082825260208201905092915050565b6000819050602082019050919050565b6117f08161157a565b82525050565b600061180283836117e7565b60208301905092915050565b6000602082019050919050565b6000611826826117bb565b61183081856117c6565b935061183b836117d7565b8060005b8381101561186c57815161185388826117f6565b975061185e8361180e565b92505060018101905061183f565b5085935050505092915050565b60006020820190508181036000830152611893818461181b565b905092915050565b6000806000606084860312156118b4576118b36114a7565b5b60006118c2868287016114d2565b93505060206118d3868287016114d2565b92505060406118e4868287016114d2565b9150509250925092565b600082825260208201905092915050565b7f696e76616c696420494400000000000000000000000000000000000000000000600082015250565b6000611935600a836118ee565b9150611940826118ff565b602082019050919050565b6000602082019050818103600083015261196481611928565b9050919050565b7f4e487b7100000000000000000000000000000000000000000000000000000000600052603260045260246000fd5b7f7072697a6520686173206265656e206469737472696275746564000000000000600082015250565b60006119d0601a836118ee565b91506119db8261199a565b602082019050919050565b600060208201905081810360008301526119ff816119c3565b9050919050565b7f67616d6520686173206e6f742065787069726564000000000000000000000000600082015250565b6000611a3c6014836118ee565b9150611a4782611a06565b602082019050919050565b60006020820190508181036000830152611a6b81611a2f565b9050919050565b600081905092915050565b50565b6000611a8d600083611a72565b9150611a9882611a7d565b600082019050919050565b6000611aae82611a80565b9150819050919050565b7f70726f626c656d207769746820726566756e6400000000000000000000000000600082015250565b6000611aee6013836118ee565b9150611af982611ab8565b602082019050919050565b60006020820190508181036000830152611b1d81611ae1565b9050919050565b7f4e487b7100000000000000000000000000000000000000000000000000000000600052601160045260246000fd5b6000611b5e826114b1565b91507fffffffffffffffffffffffffffffffffffffffffffffffffffffffffffffffff8203611b9057611b8f611b24565b5b600182019050919050565b7f46756e6374696f6e206d7573742062652063616c6c6564207468726f7567682060008201527f64656c656761746563616c6c0000000000000000000000000000000000000000602082015250565b6000611bf7602c836118ee565b9150611c0282611b9b565b604082019050919050565b60006020820190508181036000830152611c2681611bea565b9050919050565b7f46756e6374696f6e206d7573742062652063616c6c6564207468726f7567682060008201527f6163746976652070726f78790000000000000000000000000000000000000000602082015250565b6000611c89602c836118ee565b9150611c9482611c2d565b604082019050919050565b60006020820190508181036000830152611cb881611c7c565b9050919050565b7f555550535570677261646561626c653a206d757374206e6f742062652063616c60008201527f6c6564207468726f7567682064656c656761746563616c6c0000000000000000602082015250565b6000611d1b6038836118ee565b9150611d2682611cbf565b604082019050919050565b60006020820190508181036000830152611d4a81611d0e565b9050919050565b7f67616d6520656e64656400000000000000000000000000000000000000000000600082015250565b6000611d87600a836118ee565b9150611d9282611d51565b602082019050919050565b60006020820190508181036000830152611db681611d7a565b9050919050565b7f67616d6520657870697265640000000000000000000000000000000000000000600082015250565b6000611df3600c836118ee565b9150611dfe82611dbd565b602082019050919050565b60006020820190508181036000830152611e2281611de6565b9050919050565b7f796f75206d7573742073656e6420746865206578616374207469636b6574207060008201527f7269636500000000000000000000000000000000000000000000000000000000602082015250565b6000611e856024836118ee565b9150611e9082611e29565b604082019050919050565b60006020820190508181036000830152611eb481611e78565b9050919050565b7f6361706163697479206d7573742062652067726561746572207468616e203100600082015250565b6000611ef1601f836118ee565b9150611efc82611ebb565b602082019050919050565b60006020820190508181036000830152611f2081611ee4565b9050919050565b7f7469636b65742070726963652063616e2774206265207a65726f000000000000600082015250565b6000611f5d601a836118ee565b9150611f6882611f27565b602082019050919050565b60006020820190508181036000830152611f8c81611f50565b9050919050565b7f65787069726174696f6e206d75737420626520696e2074686520667574757265600082015250565b6000611fc96020836118ee565b9150611fd482611f93565b602082019050919050565b60006020820190508181036000830152611ff881611fbc565b9050919050565b60006020820190506120146000830184611514565b92915050565b7f6e6f7420617574686f72697a65642c2061646d696e206f6e6c79000000000000600082015250565b6000612050601a836118ee565b915061205b8261201a565b602082019050919050565b6000602082019050818103600083015261207f81612043565b9050919050565b61208f81611787565b811461209a57600080fd5b50565b6000815190506120ac81612086565b92915050565b6000602082840312156120c8576120c76114a7565b5b60006120d68482850161209d565b91505092915050565b7f45524331393637557067726164653a206e657720696d706c656d656e7461746960008201527f6f6e206973206e6f742055555053000000000000000000000000000000000000602082015250565b600061213b602e836118ee565b9150612146826120df565b604082019050919050565b6000602082019050818103600083015261216a8161212e565b9050919050565b7f45524331393637557067726164653a20756e737570706f727465642070726f7860008201527f6961626c65555549440000000000000000000000000000000000000000000000602082015250565b60006121cd6029836118ee565b91506121d882612171565b604082019050919050565b600060208201905081810360008301526121fc816121c0565b9050919050565b600061220e826114b1565b9150612219836114b1565b9250828202612227816114b1565b9150828204841483151761223e5761223d611b24565b5b5092915050565b6000819050919050565b61226061225b826114b1565b612245565b82525050565b600081549050919050565b600081905092915050565b60008190508160005260206000209050919050565b61229a8161157a565b82525050565b60006122ac8383612291565b60208301905092915050565b60008160001c9050919050565b600073ffffffffffffffffffffffffffffffffffffffff82169050919050565b60006122f86122f3836122b8565b6122c5565b9050919050565b600061230b82546122e5565b9050919050565b6000600182019050919050565b600061232a82612266565b6123348185612271565b935061233f8361227c565b8060005b8381101561237757612354826122ff565b61235e88826122a0565b975061236983612312565b925050600181019050612343565b5085935050505092915050565b6000612390828661224f565b6020820191506123a0828561231f565b91506123ac828461224f565b602082019150819050949350505050565b7f4e487b7100000000000000000000000000000000000000000000000000000000600052601260045260246000fd5b60006123f7826114b1565b9150612402836114b1565b925082612412576124116123bd565b5b828206905092915050565b6124268161157a565b82525050565b6000604082019050612441600083018561241d565b61244e6020830184611514565b9392505050565b7f70726f626c656d2077697468207061796d656e74000000000000000000000000600082015250565b600061248b6014836118ee565b915061249682612455565b602082019050919050565b600060208201905081810360008301526124ba8161247e565b9050919050565b7f455243313936373a206e657720696d706c656d656e746174696f6e206973206e60008201527f6f74206120636f6e747261637400000000000000000000000000000000000000602082015250565b600061251d602d836118ee565b9150612528826124c1565b604082019050919050565b6000602082019050818103600083015261254c81612510565b9050919050565b600081519050919050565b60005b8381101561257c578082015181840152602081019050612561565b60008484015250505050565b600061259382612553565b61259d8185611a72565b93506125ad81856020860161255e565b80840191505092915050565b60006125c58284612588565b915081905092915050565b7f416464726573733a2063616c6c20746f206e6f6e2d636f6e7472616374000000600082015250565b6000612606601d836118ee565b9150612611826125d0565b602082019050919050565b60006020820190508181036000830152612635816125f9565b9050919050565b600081519050919050565b60006126528261263c565b61265c81856118ee565b935061266c81856020860161255e565b612675816115ef565b840191505092915050565b6000602082019050818103600083015261269a8184612647565b90509291505056fe416464726573733a206c6f772d6c6576656c2064656c65676174652063616c6c206661696c6564a2646970667358221220a4a2bbc27a854aa0058d090bb13fe09e7dbd439d370587b76ef18443e836473c64736f6c63430008120033",
  "linkReferences": {},
  "deployedLinkReferences": {}
}