{
  "_format": "hh-sol-artifact-1",
  "contractName": "MiniLottoV3",
  "sourceName": "contracts/MiniLottoV3.sol",
  "abi": [
    {
      "anonymous": false,
      "inputs": [
        {
          "indexed": false,
          "internalType": "address",
          "name": "previousAdmin",
          "type": "address"
        },
        {
          "indexed": false,
          "internalType": "address",
          "name": "newAdmin",
          "type": "address"
        }
      ],
      "name": "AdminChanged",
      "type": "event"
    },
    {
      "anonymous": false,
      "inputs": [
        {
          "indexed": true,
          "internalType": "address",
          "name": "beacon",
          "type": "address"
        }
      ],
      "name": "BeaconUpgraded",
      "type": "event"
    },
    {
      "anonymous": false,
      "inputs": [
        {
          "indexed": true,
          "internalType": "address",
          "name": "implementation",
          "type": "address"
        }
      ],
      "name": "Upgraded",
      "type": "event"
    },
    {
      "anonymous": false,
      "inputs": [
        {
          "indexed": true,
          "internalType": "uint256",
          "name": "gameId",
          "type": "uint256"
        },
        {
          "indexed": false,
          "internalType": "address",
          "name": "",
          "type": "address"
        }
      ],
      "name": "Winner",
      "type": "event"
    },
    {
      "inputs": [
        {
          "internalType": "uint256",
          "name": "gameId",
          "type": "uint256"
        },
        {
          "internalType": "uint256",
          "name": "numTickets",
          "type": "uint256"
        }
      ],
      "name": "buyTickets",
      "outputs": [],
      "stateMutability": "payable",
      "type": "function"
    },
    {
      "inputs": [
        {
          "internalType": "uint256",
          "name": "capacity",
          "type": "uint256"
        },
        {
          "internalType": "uint256",
          "name": "ticketPrice",
          "type": "uint256"
        },
        {
          "internalType": "uint256",
          "name": "expiration",
          "type": "uint256"
        },
        {
          "internalType": "uint256",
          "name": "numTickets",
          "type": "uint256"
        }
      ],
      "name": "createGame",
      "outputs": [],
      "stateMutability": "payable",
      "type": "function"
    },
    {
      "inputs": [
        {
          "internalType": "uint256",
          "name": "",
          "type": "uint256"
        }
      ],
      "name": "games",
      "outputs": [
        {
          "internalType": "uint256",
          "name": "capacity",
          "type": "uint256"
        },
        {
          "internalType": "uint256",
          "name": "ticketPrice",
          "type": "uint256"
        },
        {
          "internalType": "uint256",
          "name": "expiration",
          "type": "uint256"
        },
        {
          "internalType": "bool",
          "name": "refunded",
          "type": "bool"
        }
      ],
      "stateMutability": "view",
      "type": "function"
    },
    {
      "inputs": [],
      "name": "getGames",
      "outputs": [
        {
          "components": [
            {
              "internalType": "uint256",
              "name": "capacity",
              "type": "uint256"
            },
            {
              "internalType": "uint256",
              "name": "ticketPrice",
              "type": "uint256"
            },
            {
              "internalType": "address[]",
              "name": "pool",
              "type": "address[]"
            },
            {
              "internalType": "uint256",
              "name": "expiration",
              "type": "uint256"
            },
            {
              "internalType": "bool",
              "name": "refunded",
              "type": "bool"
            }
          ],
          "internalType": "struct MiniLottoV3.Game[]",
          "name": "",
          "type": "tuple[]"
        }
      ],
      "stateMutability": "view",
      "type": "function"
    },
    {
      "inputs": [
        {
          "internalType": "uint256",
          "name": "gameId",
          "type": "uint256"
        }
      ],
      "name": "getParticipants",
      "outputs": [
        {
          "internalType": "address[]",
          "name": "",
          "type": "address[]"
        }
      ],
      "stateMutability": "view",
      "type": "function"
    },
    {
      "inputs": [],
      "name": "proxiableUUID",
      "outputs": [
        {
          "internalType": "bytes32",
          "name": "",
          "type": "bytes32"
        }
      ],
      "stateMutability": "view",
      "type": "function"
    },
    {
      "inputs": [
        {
          "internalType": "uint256",
          "name": "gameId",
          "type": "uint256"
        }
      ],
      "name": "refund",
      "outputs": [],
      "stateMutability": "nonpayable",
      "type": "function"
    },
    {
      "inputs": [
        {
          "internalType": "address",
          "name": "newImplementation",
          "type": "address"
        }
      ],
      "name": "upgradeTo",
      "outputs": [],
      "stateMutability": "nonpayable",
      "type": "function"
    },
    {
      "inputs": [
        {
          "internalType": "address",
          "name": "newImplementation",
          "type": "address"
        },
        {
          "internalType": "bytes",
          "name": "data",
          "type": "bytes"
        }
      ],
      "name": "upgradeToAndCall",
      "outputs": [],
      "stateMutability": "payable",
      "type": "function"
    }
  ],
  "bytecode": "0x60a06040523073ffffffffffffffffffffffffffffffffffffffff1660809073ffffffffffffffffffffffffffffffffffffffff16815250600060015534801561004857600080fd5b50608051612d5c610080600039600081816104ec0152818161057a015281816106740152818161070201526107b20152612d5c6000f3fe6080604052600436106100865760003560e01c806352d1902d1161005957806352d1902d146101395780638627df4614610164578063bdaae1e714610180578063c04c59471461019c578063c1e3bd3e146101c757610086565b8063117a5b901461008b578063278ecde1146100cb5780633659cfe6146100f45780634f1ef2861461011d575b600080fd5b34801561009757600080fd5b506100b260048036038101906100ad9190611745565b610204565b6040516100c2949392919061179c565b60405180910390f35b3480156100d757600080fd5b506100f260048036038101906100ed9190611745565b610251565b005b34801561010057600080fd5b5061011b6004803603810190610116919061183f565b6104ea565b005b610137600480360381019061013291906119b2565b610672565b005b34801561014557600080fd5b5061014e6107ae565b60405161015b9190611a27565b60405180910390f35b61017e60048036038101906101799190611a42565b610867565b005b61019a60048036038101906101959190611a82565b610ac4565b005b3480156101a857600080fd5b506101b1610cf6565b6040516101be9190611cfd565b60405180910390f35b3480156101d357600080fd5b506101ee60048036038101906101e99190611745565b610e1c565b6040516101fb9190611d8e565b60405180910390f35b6000818154811061021457600080fd5b90600052602060002090600502016000915090508060000154908060010154908060030154908060040160009054906101000a900460ff16905084565b6000805490508110610298576040517f08c379a000000000000000000000000000000000000000000000000000000000815260040161028f90611e0d565b60405180910390fd5b60008082815481106102ad576102ac611e2d565b5b90600052602060002090600502019050806000015481600201805490501061030a576040517f08c379a000000000000000000000000000000000000000000000000000000000815260040161030190611ea8565b60405180910390fd5b600081600301541180156103215750428160030154105b610360576040517f08c379a000000000000000000000000000000000000000000000000000000000815260040161035790611f14565b60405180910390fd5b8060040160009054906101000a900460ff16156103b2576040517f08c379a00000000000000000000000000000000000000000000000000000000081526004016103a990611f80565b60405180910390fd5b60018160040160006101000a81548160ff02191690831515021790555060005b81600201805490508110156104e55760008260020182815481106103f9576103f8611e2d565b5b9060005260206000200160009054906101000a900473ffffffffffffffffffffffffffffffffffffffff1673ffffffffffffffffffffffffffffffffffffffff16836001015460405161044b90611fd1565b60006040518083038185875af1925050503d8060008114610488576040519150601f19603f3d011682016040523d82523d6000602084013e61048d565b606091505b50509050806104d1576040517f08c379a00000000000000000000000000000000000000000000000000000000081526004016104c890612032565b60405180910390fd5b5080806104dd90612081565b9150506103d2565b505050565b7f000000000000000000000000000000000000000000000000000000000000000073ffffffffffffffffffffffffffffffffffffffff163073ffffffffffffffffffffffffffffffffffffffff1603610578576040517f08c379a000000000000000000000000000000000000000000000000000000000815260040161056f9061213b565b60405180910390fd5b7f000000000000000000000000000000000000000000000000000000000000000073ffffffffffffffffffffffffffffffffffffffff166105b7610ecf565b73ffffffffffffffffffffffffffffffffffffffff161461060d576040517f08c379a0000000000000000000000000000000000000000000000000000000008152600401610604906121cd565b60405180910390fd5b61061681610f26565b61066f81600067ffffffffffffffff81111561063557610634611887565b5b6040519080825280601f01601f1916602001820160405280156106675781602001600182028036833780820191505090505b506000610f9e565b50565b7f000000000000000000000000000000000000000000000000000000000000000073ffffffffffffffffffffffffffffffffffffffff163073ffffffffffffffffffffffffffffffffffffffff1603610700576040517f08c379a00000000000000000000000000000000000000000000000000000000081526004016106f79061213b565b60405180910390fd5b7f000000000000000000000000000000000000000000000000000000000000000073ffffffffffffffffffffffffffffffffffffffff1661073f610ecf565b73ffffffffffffffffffffffffffffffffffffffff1614610795576040517f08c379a000000000000000000000000000000000000000000000000000000000815260040161078c906121cd565b60405180910390fd5b61079e82610f26565b6107aa82826001610f9e565b5050565b60007f000000000000000000000000000000000000000000000000000000000000000073ffffffffffffffffffffffffffffffffffffffff163073ffffffffffffffffffffffffffffffffffffffff161461083e576040517f08c379a00000000000000000000000000000000000000000000000000000000081526004016108359061225f565b60405180910390fd5b7f360894a13ba1a3210667c828492db98dca3e2076cc3735a920a3ca505d382bbc60001b905090565b60008054905082106108ae576040517f08c379a00000000000000000000000000000000000000000000000000000000081526004016108a590611e0d565b60405180910390fd5b60008083815481106108c3576108c2611e2d565b5b906000526020600020906005020190508060000154816002018054905010610920576040517f08c379a0000000000000000000000000000000000000000000000000000000008152600401610917906122cb565b60405180910390fd5b6000816003015414806109365750428160030154115b610975576040517f08c379a000000000000000000000000000000000000000000000000000000000815260040161096c90612337565b60405180910390fd5b8060020180549050816000015461098c9190612357565b8211156109ce576040517f08c379a00000000000000000000000000000000000000000000000000000000081526004016109c5906123fd565b60405180910390fd5b8181600101546109de919061241d565b3414610a1f576040517f08c379a0000000000000000000000000000000000000000000000000000000008152600401610a16906124d1565b60405180910390fd5b60005b82811015610aa25781600201339080600181540180825580915050600190039060005260206000200160009091909190916101000a81548173ffffffffffffffffffffffffffffffffffffffff021916908373ffffffffffffffffffffffffffffffffffffffff1602179055508080610a9a90612081565b915050610a22565b508060000154816002018054905003610abf57610abe8361110c565b5b505050565b60018411610b07576040517f08c379a0000000000000000000000000000000000000000000000000000000008152600401610afe9061253d565b60405180910390fd5b60008311610b4a576040517f08c379a0000000000000000000000000000000000000000000000000000000008152600401610b41906125a9565b60405180910390fd5b60008111610b8d576040517f08c379a0000000000000000000000000000000000000000000000000000000008152600401610b849061263b565b60405180910390fd5b6000821480610b9b57504282115b610bda576040517f08c379a0000000000000000000000000000000000000000000000000000000008152600401610bd1906126a7565b60405180910390fd5b60006040518060a00160405280868152602001858152602001600067ffffffffffffffff811115610c0e57610c0d611887565b5b604051908082528060200260200182016040528015610c3c5781602001602082028036833780820191505090505b50815260200184815260200160001515815250908060018154018082558091505060019003906000526020600020906005020160009091909190915060008201518160000155602082015181600101556040820151816002019080519060200190610ca8929190611654565b506060820151816003015560808201518160040160006101000a81548160ff0219169083151502179055505050610cf06001600080549050610cea9190612357565b82610867565b50505050565b60606000805480602002602001604051908101604052809291908181526020016000905b82821015610e1357838290600052602060002090600502016040518060a0016040529081600082015481526020016001820154815260200160028201805480602002602001604051908101604052809291908181526020018280548015610dd657602002820191906000526020600020905b8160009054906101000a900473ffffffffffffffffffffffffffffffffffffffff1673ffffffffffffffffffffffffffffffffffffffff1681526020019060010190808311610d8c575b50505050508152602001600382015481526020016004820160009054906101000a900460ff16151515158152505081526020019060010190610d1a565b50505050905090565b606060008281548110610e3257610e31611e2d565b5b9060005260206000209060050201600201805480602002602001604051908101604052809291908181526020018280548015610ec357602002820191906000526020600020905b8160009054906101000a900473ffffffffffffffffffffffffffffffffffffffff1673ffffffffffffffffffffffffffffffffffffffff1681526020019060010190808311610e79575b50505050509050919050565b6000610efd7f360894a13ba1a3210667c828492db98dca3e2076cc3735a920a3ca505d382bbc60001b61131a565b60000160009054906101000a900473ffffffffffffffffffffffffffffffffffffffff16905090565b610f2e611324565b73ffffffffffffffffffffffffffffffffffffffff163373ffffffffffffffffffffffffffffffffffffffff1614610f9b576040517f08c379a0000000000000000000000000000000000000000000000000000000008152600401610f9290612713565b60405180910390fd5b50565b610fca7f4910fdfa16fed3260ed0e7147f7cc6da11a60208b5b9406d12a635614ffd914360001b61137b565b60000160009054906101000a900460ff1615610fee57610fe983611385565b611107565b8273ffffffffffffffffffffffffffffffffffffffff166352d1902d6040518163ffffffff1660e01b8152600401602060405180830381865afa92505050801561105657506040513d601f19601f82011682018060405250810190611053919061275f565b60015b611095576040517f08c379a000000000000000000000000000000000000000000000000000000000815260040161108c906127fe565b60405180910390fd5b7f360894a13ba1a3210667c828492db98dca3e2076cc3735a920a3ca505d382bbc60001b81146110fa576040517f08c379a00000000000000000000000000000000000000000000000000000000081526004016110f190612890565b60405180910390fd5b5061110683838361143e565b5b505050565b600080828154811061112157611120611e2d565b5b9060005260206000209060050201905060008160010154826002018054905061114a919061241d565b9050600042836002016001600081548092919061116690612081565b9190505560405160200161117c939291906129ef565b6040516020818303038152906040528051906020012060001c905060008360020180549050826111ac9190612a57565b9050847f6b5936f5be80114e7a91daf84ba4886ece975aaffac48c9609cfa022d74a8a7d8560020183815481106111e6576111e5611e2d565b5b9060005260206000200160009054906101000a900473ffffffffffffffffffffffffffffffffffffffff1660405161121e9190612a97565b60405180910390a2600084600201828154811061123e5761123d611e2d565b5b9060005260206000200160009054906101000a900473ffffffffffffffffffffffffffffffffffffffff1673ffffffffffffffffffffffffffffffffffffffff168460405161128c90611fd1565b60006040518083038185875af1925050503d80600081146112c9576040519150601f19603f3d011682016040523d82523d6000602084013e6112ce565b606091505b5050905080611312576040517f08c379a000000000000000000000000000000000000000000000000000000000815260040161130990612afe565b60405180910390fd5b505050505050565b6000819050919050565b60006113527fb53127684a568b3173ae13b9f8a6016e243e63b6e8ee1178d6a717850b5d610360001b61131a565b60000160009054906101000a900473ffffffffffffffffffffffffffffffffffffffff16905090565b6000819050919050565b61138e8161146a565b6113cd576040517f08c379a00000000000000000000000000000000000000000000000000000000081526004016113c490612b90565b60405180910390fd5b806113fa7f360894a13ba1a3210667c828492db98dca3e2076cc3735a920a3ca505d382bbc60001b61131a565b60000160006101000a81548173ffffffffffffffffffffffffffffffffffffffff021916908373ffffffffffffffffffffffffffffffffffffffff16021790555050565b6114478361148d565b6000825111806114545750805b156114655761146383836114dc565b505b505050565b6000808273ffffffffffffffffffffffffffffffffffffffff163b119050919050565b61149681611385565b8073ffffffffffffffffffffffffffffffffffffffff167fbc7cd75a20ee27fd9adebab32041f755214dbc6bffa90cc0225b39da2e5c2d3b60405160405180910390a250565b60606115018383604051806060016040528060278152602001612d0060279139611509565b905092915050565b60606000808573ffffffffffffffffffffffffffffffffffffffff16856040516115339190612c16565b600060405180830381855af49150503d806000811461156e576040519150601f19603f3d011682016040523d82523d6000602084013e611573565b606091505b50915091506115848683838761158f565b925050509392505050565b606083156115f15760008351036115e9576115a98561146a565b6115e8576040517f08c379a00000000000000000000000000000000000000000000000000000000081526004016115df90612c79565b60405180910390fd5b5b8290506115fc565b6115fb8383611604565b5b949350505050565b6000825111156116175781518083602001fd5b806040517f08c379a000000000000000000000000000000000000000000000000000000000815260040161164b9190612cdd565b60405180910390fd5b8280548282559060005260206000209081019282156116cd579160200282015b828111156116cc5782518260006101000a81548173ffffffffffffffffffffffffffffffffffffffff021916908373ffffffffffffffffffffffffffffffffffffffff16021790555091602001919060010190611674565b5b5090506116da91906116de565b5090565b5b808211156116f75760008160009055506001016116df565b5090565b6000604051905090565b600080fd5b600080fd5b6000819050919050565b6117228161170f565b811461172d57600080fd5b50565b60008135905061173f81611719565b92915050565b60006020828403121561175b5761175a611705565b5b600061176984828501611730565b91505092915050565b61177b8161170f565b82525050565b60008115159050919050565b61179681611781565b82525050565b60006080820190506117b16000830187611772565b6117be6020830186611772565b6117cb6040830185611772565b6117d8606083018461178d565b95945050505050565b600073ffffffffffffffffffffffffffffffffffffffff82169050919050565b600061180c826117e1565b9050919050565b61181c81611801565b811461182757600080fd5b50565b60008135905061183981611813565b92915050565b60006020828403121561185557611854611705565b5b60006118638482850161182a565b91505092915050565b600080fd5b600080fd5b6000601f19601f8301169050919050565b7f4e487b7100000000000000000000000000000000000000000000000000000000600052604160045260246000fd5b6118bf82611876565b810181811067ffffffffffffffff821117156118de576118dd611887565b5b80604052505050565b60006118f16116fb565b90506118fd82826118b6565b919050565b600067ffffffffffffffff82111561191d5761191c611887565b5b61192682611876565b9050602081019050919050565b82818337600083830152505050565b600061195561195084611902565b6118e7565b90508281526020810184848401111561197157611970611871565b5b61197c848285611933565b509392505050565b600082601f8301126119995761199861186c565b5b81356119a9848260208601611942565b91505092915050565b600080604083850312156119c9576119c8611705565b5b60006119d78582860161182a565b925050602083013567ffffffffffffffff8111156119f8576119f761170a565b5b611a0485828601611984565b9150509250929050565b6000819050919050565b611a2181611a0e565b82525050565b6000602082019050611a3c6000830184611a18565b92915050565b60008060408385031215611a5957611a58611705565b5b6000611a6785828601611730565b9250506020611a7885828601611730565b9150509250929050565b60008060008060808587031215611a9c57611a9b611705565b5b6000611aaa87828801611730565b9450506020611abb87828801611730565b9350506040611acc87828801611730565b9250506060611add87828801611730565b91505092959194509250565b600081519050919050565b600082825260208201905092915050565b6000819050602082019050919050565b611b1e8161170f565b82525050565b600081519050919050565b600082825260208201905092915050565b6000819050602082019050919050565b611b5981611801565b82525050565b6000611b6b8383611b50565b60208301905092915050565b6000602082019050919050565b6000611b8f82611b24565b611b998185611b2f565b9350611ba483611b40565b8060005b83811015611bd5578151611bbc8882611b5f565b9750611bc783611b77565b925050600181019050611ba8565b5085935050505092915050565b611beb81611781565b82525050565b600060a083016000830151611c096000860182611b15565b506020830151611c1c6020860182611b15565b5060408301518482036040860152611c348282611b84565b9150506060830151611c496060860182611b15565b506080830151611c5c6080860182611be2565b508091505092915050565b6000611c738383611bf1565b905092915050565b6000602082019050919050565b6000611c9382611ae9565b611c9d8185611af4565b935083602082028501611caf85611b05565b8060005b85811015611ceb5784840389528151611ccc8582611c67565b9450611cd783611c7b565b925060208a01995050600181019050611cb3565b50829750879550505050505092915050565b60006020820190508181036000830152611d178184611c88565b905092915050565b600082825260208201905092915050565b6000611d3b82611b24565b611d458185611d1f565b9350611d5083611b40565b8060005b83811015611d81578151611d688882611b5f565b9750611d7383611b77565b925050600181019050611d54565b5085935050505092915050565b60006020820190508181036000830152611da88184611d30565b905092915050565b600082825260208201905092915050565b7f696e76616c696420494400000000000000000000000000000000000000000000600082015250565b6000611df7600a83611db0565b9150611e0282611dc1565b602082019050919050565b60006020820190508181036000830152611e2681611dea565b9050919050565b7f4e487b7100000000000000000000000000000000000000000000000000000000600052603260045260246000fd5b7f67616d6520697320636f6d706c65746500000000000000000000000000000000600082015250565b6000611e92601083611db0565b9150611e9d82611e5c565b602082019050919050565b60006020820190508181036000830152611ec181611e85565b9050919050565b7f67616d6520686173206e6f742065787069726564000000000000000000000000600082015250565b6000611efe601483611db0565b9150611f0982611ec8565b602082019050919050565b60006020820190508181036000830152611f2d81611ef1565b9050919050565b7f7469636b6574732068617665206265656e20726566756e646564000000000000600082015250565b6000611f6a601a83611db0565b9150611f7582611f34565b602082019050919050565b60006020820190508181036000830152611f9981611f5d565b9050919050565b600081905092915050565b50565b6000611fbb600083611fa0565b9150611fc682611fab565b600082019050919050565b6000611fdc82611fae565b9150819050919050565b7f70726f626c656d207769746820726566756e6400000000000000000000000000600082015250565b600061201c601383611db0565b915061202782611fe6565b602082019050919050565b6000602082019050818103600083015261204b8161200f565b9050919050565b7f4e487b7100000000000000000000000000000000000000000000000000000000600052601160045260246000fd5b600061208c8261170f565b91507fffffffffffffffffffffffffffffffffffffffffffffffffffffffffffffffff82036120be576120bd612052565b5b600182019050919050565b7f46756e6374696f6e206d7573742062652063616c6c6564207468726f7567682060008201527f64656c656761746563616c6c0000000000000000000000000000000000000000602082015250565b6000612125602c83611db0565b9150612130826120c9565b604082019050919050565b6000602082019050818103600083015261215481612118565b9050919050565b7f46756e6374696f6e206d7573742062652063616c6c6564207468726f7567682060008201527f6163746976652070726f78790000000000000000000000000000000000000000602082015250565b60006121b7602c83611db0565b91506121c28261215b565b604082019050919050565b600060208201905081810360008301526121e6816121aa565b9050919050565b7f555550535570677261646561626c653a206d757374206e6f742062652063616c60008201527f6c6564207468726f7567682064656c656761746563616c6c0000000000000000602082015250565b6000612249603883611db0565b9150612254826121ed565b604082019050919050565b600060208201905081810360008301526122788161223c565b9050919050565b7f67616d6520656e64656400000000000000000000000000000000000000000000600082015250565b60006122b5600a83611db0565b91506122c08261227f565b602082019050919050565b600060208201905081810360008301526122e4816122a8565b9050919050565b7f67616d6520657870697265640000000000000000000000000000000000000000600082015250565b6000612321600c83611db0565b915061232c826122eb565b602082019050919050565b6000602082019050818103600083015261235081612314565b9050919050565b60006123628261170f565b915061236d8361170f565b925082820390508181111561238557612384612052565b5b92915050565b7f6e756d5469636b6574732065786365656420617661696c61626c65207469636b60008201527f6574730000000000000000000000000000000000000000000000000000000000602082015250565b60006123e7602383611db0565b91506123f28261238b565b604082019050919050565b60006020820190508181036000830152612416816123da565b9050919050565b60006124288261170f565b91506124338361170f565b92508282026124418161170f565b9150828204841483151761245857612457612052565b5b5092915050565b7f796f75206d7573742073656e6420746865206578616374207469636b6574207060008201527f7269636500000000000000000000000000000000000000000000000000000000602082015250565b60006124bb602483611db0565b91506124c68261245f565b604082019050919050565b600060208201905081810360008301526124ea816124ae565b9050919050565b7f6361706163697479206d7573742062652067726561746572207468616e203100600082015250565b6000612527601f83611db0565b9150612532826124f1565b602082019050919050565b600060208201905081810360008301526125568161251a565b9050919050565b7f7469636b65742070726963652063616e2774206265207a65726f000000000000600082015250565b6000612593601a83611db0565b915061259e8261255d565b602082019050919050565b600060208201905081810360008301526125c281612586565b9050919050565b7f63726561746f72206d757374207075726368617365206174206c65617374203160008201527f207469636b657400000000000000000000000000000000000000000000000000602082015250565b6000612625602783611db0565b9150612630826125c9565b604082019050919050565b6000602082019050818103600083015261265481612618565b9050919050565b7f65787069726174696f6e206d75737420626520696e2074686520667574757265600082015250565b6000612691602083611db0565b915061269c8261265b565b602082019050919050565b600060208201905081810360008301526126c081612684565b9050919050565b7f6e6f7420617574686f72697a65642c2061646d696e206f6e6c79000000000000600082015250565b60006126fd601a83611db0565b9150612708826126c7565b602082019050919050565b6000602082019050818103600083015261272c816126f0565b9050919050565b61273c81611a0e565b811461274757600080fd5b50565b60008151905061275981612733565b92915050565b60006020828403121561277557612774611705565b5b60006127838482850161274a565b91505092915050565b7f45524331393637557067726164653a206e657720696d706c656d656e7461746960008201527f6f6e206973206e6f742055555053000000000000000000000000000000000000602082015250565b60006127e8602e83611db0565b91506127f38261278c565b604082019050919050565b60006020820190508181036000830152612817816127db565b9050919050565b7f45524331393637557067726164653a20756e737570706f727465642070726f7860008201527f6961626c65555549440000000000000000000000000000000000000000000000602082015250565b600061287a602983611db0565b91506128858261281e565b604082019050919050565b600060208201905081810360008301526128a98161286d565b9050919050565b6000819050919050565b6128cb6128c68261170f565b6128b0565b82525050565b600081549050919050565b600081905092915050565b60008190508160005260206000209050919050565b61290581611801565b82525050565b600061291783836128fc565b60208301905092915050565b60008160001c9050919050565b600073ffffffffffffffffffffffffffffffffffffffff82169050919050565b600061296361295e83612923565b612930565b9050919050565b60006129768254612950565b9050919050565b6000600182019050919050565b6000612995826128d1565b61299f81856128dc565b93506129aa836128e7565b8060005b838110156129e2576129bf8261296a565b6129c9888261290b565b97506129d48361297d565b9250506001810190506129ae565b5085935050505092915050565b60006129fb82866128ba565b602082019150612a0b828561298a565b9150612a1782846128ba565b602082019150819050949350505050565b7f4e487b7100000000000000000000000000000000000000000000000000000000600052601260045260246000fd5b6000612a628261170f565b9150612a6d8361170f565b925082612a7d57612a7c612a28565b5b828206905092915050565b612a9181611801565b82525050565b6000602082019050612aac6000830184612a88565b92915050565b7f70726f626c656d2077697468207061796d656e74000000000000000000000000600082015250565b6000612ae8601483611db0565b9150612af382612ab2565b602082019050919050565b60006020820190508181036000830152612b1781612adb565b9050919050565b7f455243313936373a206e657720696d706c656d656e746174696f6e206973206e60008201527f6f74206120636f6e747261637400000000000000000000000000000000000000602082015250565b6000612b7a602d83611db0565b9150612b8582612b1e565b604082019050919050565b60006020820190508181036000830152612ba981612b6d565b9050919050565b600081519050919050565b60005b83811015612bd9578082015181840152602081019050612bbe565b60008484015250505050565b6000612bf082612bb0565b612bfa8185611fa0565b9350612c0a818560208601612bbb565b80840191505092915050565b6000612c228284612be5565b915081905092915050565b7f416464726573733a2063616c6c20746f206e6f6e2d636f6e7472616374000000600082015250565b6000612c63601d83611db0565b9150612c6e82612c2d565b602082019050919050565b60006020820190508181036000830152612c9281612c56565b9050919050565b600081519050919050565b6000612caf82612c99565b612cb98185611db0565b9350612cc9818560208601612bbb565b612cd281611876565b840191505092915050565b60006020820190508181036000830152612cf78184612ca4565b90509291505056fe416464726573733a206c6f772d6c6576656c2064656c65676174652063616c6c206661696c6564a26469706673582212204ee549ed7ad4dea447494602986e48ec1e58885d5c38af1281e9a94957c04fb664736f6c63430008120033",
  "linkReferences": {},
  "deployedLinkReferences": {}
}