{
  "_format": "hh-sol-artifact-1",
  "contractName": "MiniLottoV4",
  "sourceName": "contracts/MiniLottoV4.sol",
  "abi": [
    {
      "anonymous": false,
      "inputs": [
        {
          "indexed": false,
          "internalType": "address",
          "name": "previousAdmin",
          "type": "address"
        },
        {
          "indexed": false,
          "internalType": "address",
          "name": "newAdmin",
          "type": "address"
        }
      ],
      "name": "AdminChanged",
      "type": "event"
    },
    {
      "anonymous": false,
      "inputs": [
        {
          "indexed": true,
          "internalType": "address",
          "name": "beacon",
          "type": "address"
        }
      ],
      "name": "BeaconUpgraded",
      "type": "event"
    },
    {
      "anonymous": false,
      "inputs": [
        {
          "indexed": true,
          "internalType": "address",
          "name": "implementation",
          "type": "address"
        }
      ],
      "name": "Upgraded",
      "type": "event"
    },
    {
      "anonymous": false,
      "inputs": [
        {
          "indexed": true,
          "internalType": "uint256",
          "name": "gameId",
          "type": "uint256"
        },
        {
          "indexed": false,
          "internalType": "address",
          "name": "",
          "type": "address"
        }
      ],
      "name": "Winner",
      "type": "event"
    },
    {
      "inputs": [
        {
          "internalType": "uint256",
          "name": "gameId",
          "type": "uint256"
        },
        {
          "internalType": "uint256",
          "name": "numTickets",
          "type": "uint256"
        }
      ],
      "name": "buyTickets",
      "outputs": [],
      "stateMutability": "payable",
      "type": "function"
    },
    {
      "inputs": [
        {
          "internalType": "uint256",
          "name": "capacity",
          "type": "uint256"
        },
        {
          "internalType": "uint256",
          "name": "ticketPrice",
          "type": "uint256"
        },
        {
          "internalType": "uint256",
          "name": "expiry",
          "type": "uint256"
        },
        {
          "internalType": "uint256",
          "name": "numTickets",
          "type": "uint256"
        }
      ],
      "name": "createGame",
      "outputs": [],
      "stateMutability": "payable",
      "type": "function"
    },
    {
      "inputs": [
        {
          "internalType": "uint256",
          "name": "gameId",
          "type": "uint256"
        }
      ],
      "name": "distributePrize",
      "outputs": [],
      "stateMutability": "nonpayable",
      "type": "function"
    },
    {
      "inputs": [
        {
          "internalType": "uint256",
          "name": "",
          "type": "uint256"
        }
      ],
      "name": "games",
      "outputs": [
        {
          "internalType": "uint256",
          "name": "capacity",
          "type": "uint256"
        },
        {
          "internalType": "uint256",
          "name": "ticketPrice",
          "type": "uint256"
        },
        {
          "internalType": "uint256",
          "name": "expiry",
          "type": "uint256"
        },
        {
          "internalType": "bool",
          "name": "prizeDistributed",
          "type": "bool"
        }
      ],
      "stateMutability": "view",
      "type": "function"
    },
    {
      "inputs": [],
      "name": "getGames",
      "outputs": [
        {
          "components": [
            {
              "internalType": "uint256",
              "name": "capacity",
              "type": "uint256"
            },
            {
              "internalType": "uint256",
              "name": "ticketPrice",
              "type": "uint256"
            },
            {
              "internalType": "address[]",
              "name": "pool",
              "type": "address[]"
            },
            {
              "internalType": "uint256",
              "name": "expiry",
              "type": "uint256"
            },
            {
              "internalType": "bool",
              "name": "prizeDistributed",
              "type": "bool"
            }
          ],
          "internalType": "struct MiniLottoV4.Game[]",
          "name": "",
          "type": "tuple[]"
        }
      ],
      "stateMutability": "view",
      "type": "function"
    },
    {
      "inputs": [
        {
          "internalType": "uint256",
          "name": "gameId",
          "type": "uint256"
        }
      ],
      "name": "getParticipants",
      "outputs": [
        {
          "internalType": "address[]",
          "name": "",
          "type": "address[]"
        }
      ],
      "stateMutability": "view",
      "type": "function"
    },
    {
      "inputs": [],
      "name": "proxiableUUID",
      "outputs": [
        {
          "internalType": "bytes32",
          "name": "",
          "type": "bytes32"
        }
      ],
      "stateMutability": "view",
      "type": "function"
    },
    {
      "inputs": [
        {
          "internalType": "address",
          "name": "newImplementation",
          "type": "address"
        }
      ],
      "name": "upgradeTo",
      "outputs": [],
      "stateMutability": "nonpayable",
      "type": "function"
    },
    {
      "inputs": [
        {
          "internalType": "address",
          "name": "newImplementation",
          "type": "address"
        },
        {
          "internalType": "bytes",
          "name": "data",
          "type": "bytes"
        }
      ],
      "name": "upgradeToAndCall",
      "outputs": [],
      "stateMutability": "payable",
      "type": "function"
    }
  ],
  "bytecode": "0x60a06040523073ffffffffffffffffffffffffffffffffffffffff1660809073ffffffffffffffffffffffffffffffffffffffff16815250600060015534801561004857600080fd5b50608051612b3f61008060003960008181610253015281816102e1015281816103db0152818161046901526105190152612b3f6000f3fe6080604052600436106100865760003560e01c80638627df46116100595780638627df461461013b5780639935174214610157578063bdaae1e714610180578063c04c59471461019c578063c1e3bd3e146101c757610086565b8063117a5b901461008b5780633659cfe6146100cb5780634f1ef286146100f457806352d1902d14610110575b600080fd5b34801561009757600080fd5b506100b260048036038101906100ad9190611600565b610204565b6040516100c29493929190611657565b60405180910390f35b3480156100d757600080fd5b506100f260048036038101906100ed91906116fa565b610251565b005b61010e6004803603810190610109919061186d565b6103d9565b005b34801561011c57600080fd5b50610125610515565b60405161013291906118e2565b60405180910390f35b610155600480360381019061015091906118fd565b6105ce565b005b34801561016357600080fd5b5061017e60048036038101906101799190611600565b61082b565b005b61019a6004803603810190610195919061193d565b61097f565b005b3480156101a857600080fd5b506101b1610bb1565b6040516101be9190611bb8565b60405180910390f35b3480156101d357600080fd5b506101ee60048036038101906101e99190611600565b610cd7565b6040516101fb9190611c49565b60405180910390f35b6000818154811061021457600080fd5b90600052602060002090600502016000915090508060000154908060010154908060030154908060040160009054906101000a900460ff16905084565b7f000000000000000000000000000000000000000000000000000000000000000073ffffffffffffffffffffffffffffffffffffffff163073ffffffffffffffffffffffffffffffffffffffff16036102df576040517f08c379a00000000000000000000000000000000000000000000000000000000081526004016102d690611cee565b60405180910390fd5b7f000000000000000000000000000000000000000000000000000000000000000073ffffffffffffffffffffffffffffffffffffffff1661031e610d8a565b73ffffffffffffffffffffffffffffffffffffffff1614610374576040517f08c379a000000000000000000000000000000000000000000000000000000000815260040161036b90611d80565b60405180910390fd5b61037d81610de1565b6103d681600067ffffffffffffffff81111561039c5761039b611742565b5b6040519080825280601f01601f1916602001820160405280156103ce5781602001600182028036833780820191505090505b506000610e59565b50565b7f000000000000000000000000000000000000000000000000000000000000000073ffffffffffffffffffffffffffffffffffffffff163073ffffffffffffffffffffffffffffffffffffffff1603610467576040517f08c379a000000000000000000000000000000000000000000000000000000000815260040161045e90611cee565b60405180910390fd5b7f000000000000000000000000000000000000000000000000000000000000000073ffffffffffffffffffffffffffffffffffffffff166104a6610d8a565b73ffffffffffffffffffffffffffffffffffffffff16146104fc576040517f08c379a00000000000000000000000000000000000000000000000000000000081526004016104f390611d80565b60405180910390fd5b61050582610de1565b61051182826001610e59565b5050565b60007f000000000000000000000000000000000000000000000000000000000000000073ffffffffffffffffffffffffffffffffffffffff163073ffffffffffffffffffffffffffffffffffffffff16146105a5576040517f08c379a000000000000000000000000000000000000000000000000000000000815260040161059c90611e12565b60405180910390fd5b7f360894a13ba1a3210667c828492db98dca3e2076cc3735a920a3ca505d382bbc60001b905090565b6000805490508210610615576040517f08c379a000000000000000000000000000000000000000000000000000000000815260040161060c90611e7e565b60405180910390fd5b600080838154811061062a57610629611e9e565b5b906000526020600020906005020190508060000154816002018054905010610687576040517f08c379a000000000000000000000000000000000000000000000000000000000815260040161067e90611f19565b60405180910390fd5b60008160030154148061069d5750428160030154115b6106dc576040517f08c379a00000000000000000000000000000000000000000000000000000000081526004016106d390611f85565b60405180910390fd5b806002018054905081600001546106f39190611fd4565b821115610735576040517f08c379a000000000000000000000000000000000000000000000000000000000815260040161072c9061207a565b60405180910390fd5b818160010154610745919061209a565b3414610786576040517f08c379a000000000000000000000000000000000000000000000000000000000815260040161077d9061214e565b60405180910390fd5b60005b828110156108095781600201339080600181540180825580915050600190039060005260206000200160009091909190916101000a81548173ffffffffffffffffffffffffffffffffffffffff021916908373ffffffffffffffffffffffffffffffffffffffff16021790555080806108019061216e565b915050610789565b5080600001548160020180549050036108265761082583610fc7565b5b505050565b6000805490508110610872576040517f08c379a000000000000000000000000000000000000000000000000000000000815260040161086990611e7e565b60405180910390fd5b600080828154811061088757610886611e9e565b5b90600052602060002090600502019050600081600301541180156108ae5750428160030154105b6108ed576040517f08c379a00000000000000000000000000000000000000000000000000000000081526004016108e490612202565b60405180910390fd5b8060040160009054906101000a900460ff16158015610916575080600001548160020180549050105b610955576040517f08c379a000000000000000000000000000000000000000000000000000000000815260040161094c9061226e565b60405180910390fd5b60018160040160006101000a81548160ff02191690831515021790555061097b82610fc7565b5050565b600184116109c2576040517f08c379a00000000000000000000000000000000000000000000000000000000081526004016109b9906122da565b60405180910390fd5b60008311610a05576040517f08c379a00000000000000000000000000000000000000000000000000000000081526004016109fc90612346565b60405180910390fd5b60008111610a48576040517f08c379a0000000000000000000000000000000000000000000000000000000008152600401610a3f906123d8565b60405180910390fd5b6000821480610a5657504282115b610a95576040517f08c379a0000000000000000000000000000000000000000000000000000000008152600401610a8c90612444565b60405180910390fd5b60006040518060a00160405280868152602001858152602001600067ffffffffffffffff811115610ac957610ac8611742565b5b604051908082528060200260200182016040528015610af75781602001602082028036833780820191505090505b50815260200184815260200160001515815250908060018154018082558091505060019003906000526020600020906005020160009091909190915060008201518160000155602082015181600101556040820151816002019080519060200190610b6392919061150f565b506060820151816003015560808201518160040160006101000a81548160ff0219169083151502179055505050610bab6001600080549050610ba59190611fd4565b826105ce565b50505050565b60606000805480602002602001604051908101604052809291908181526020016000905b82821015610cce57838290600052602060002090600502016040518060a0016040529081600082015481526020016001820154815260200160028201805480602002602001604051908101604052809291908181526020018280548015610c9157602002820191906000526020600020905b8160009054906101000a900473ffffffffffffffffffffffffffffffffffffffff1673ffffffffffffffffffffffffffffffffffffffff1681526020019060010190808311610c47575b50505050508152602001600382015481526020016004820160009054906101000a900460ff16151515158152505081526020019060010190610bd5565b50505050905090565b606060008281548110610ced57610cec611e9e565b5b9060005260206000209060050201600201805480602002602001604051908101604052809291908181526020018280548015610d7e57602002820191906000526020600020905b8160009054906101000a900473ffffffffffffffffffffffffffffffffffffffff1673ffffffffffffffffffffffffffffffffffffffff1681526020019060010190808311610d34575b50505050509050919050565b6000610db87f360894a13ba1a3210667c828492db98dca3e2076cc3735a920a3ca505d382bbc60001b6111d5565b60000160009054906101000a900473ffffffffffffffffffffffffffffffffffffffff16905090565b610de96111df565b73ffffffffffffffffffffffffffffffffffffffff163373ffffffffffffffffffffffffffffffffffffffff1614610e56576040517f08c379a0000000000000000000000000000000000000000000000000000000008152600401610e4d906124b0565b60405180910390fd5b50565b610e857f4910fdfa16fed3260ed0e7147f7cc6da11a60208b5b9406d12a635614ffd914360001b611236565b60000160009054906101000a900460ff1615610ea957610ea483611240565b610fc2565b8273ffffffffffffffffffffffffffffffffffffffff166352d1902d6040518163ffffffff1660e01b8152600401602060405180830381865afa925050508015610f1157506040513d601f19601f82011682018060405250810190610f0e91906124fc565b60015b610f50576040517f08c379a0000000000000000000000000000000000000000000000000000000008152600401610f479061259b565b60405180910390fd5b7f360894a13ba1a3210667c828492db98dca3e2076cc3735a920a3ca505d382bbc60001b8114610fb5576040517f08c379a0000000000000000000000000000000000000000000000000000000008152600401610fac9061262d565b60405180910390fd5b50610fc18383836112f9565b5b505050565b6000808281548110610fdc57610fdb611e9e565b5b90600052602060002090600502019050600081600101548260020180549050611005919061209a565b905060004283600201600160008154809291906110219061216e565b919050556040516020016110379392919061278c565b6040516020818303038152906040528051906020012060001c9050600083600201805490508261106791906127f4565b9050847f6b5936f5be80114e7a91daf84ba4886ece975aaffac48c9609cfa022d74a8a7d8560020183815481106110a1576110a0611e9e565b5b9060005260206000200160009054906101000a900473ffffffffffffffffffffffffffffffffffffffff166040516110d99190612834565b60405180910390a260008460020182815481106110f9576110f8611e9e565b5b9060005260206000200160009054906101000a900473ffffffffffffffffffffffffffffffffffffffff1673ffffffffffffffffffffffffffffffffffffffff168460405161114790612880565b60006040518083038185875af1925050503d8060008114611184576040519150601f19603f3d011682016040523d82523d6000602084013e611189565b606091505b50509050806111cd576040517f08c379a00000000000000000000000000000000000000000000000000000000081526004016111c4906128e1565b60405180910390fd5b505050505050565b6000819050919050565b600061120d7fb53127684a568b3173ae13b9f8a6016e243e63b6e8ee1178d6a717850b5d610360001b6111d5565b60000160009054906101000a900473ffffffffffffffffffffffffffffffffffffffff16905090565b6000819050919050565b61124981611325565b611288576040517f08c379a000000000000000000000000000000000000000000000000000000000815260040161127f90612973565b60405180910390fd5b806112b57f360894a13ba1a3210667c828492db98dca3e2076cc3735a920a3ca505d382bbc60001b6111d5565b60000160006101000a81548173ffffffffffffffffffffffffffffffffffffffff021916908373ffffffffffffffffffffffffffffffffffffffff16021790555050565b61130283611348565b60008251118061130f5750805b156113205761131e8383611397565b505b505050565b6000808273ffffffffffffffffffffffffffffffffffffffff163b119050919050565b61135181611240565b8073ffffffffffffffffffffffffffffffffffffffff167fbc7cd75a20ee27fd9adebab32041f755214dbc6bffa90cc0225b39da2e5c2d3b60405160405180910390a250565b60606113bc8383604051806060016040528060278152602001612ae3602791396113c4565b905092915050565b60606000808573ffffffffffffffffffffffffffffffffffffffff16856040516113ee91906129f9565b600060405180830381855af49150503d8060008114611429576040519150601f19603f3d011682016040523d82523d6000602084013e61142e565b606091505b509150915061143f8683838761144a565b925050509392505050565b606083156114ac5760008351036114a45761146485611325565b6114a3576040517f08c379a000000000000000000000000000000000000000000000000000000000815260040161149a90612a5c565b60405180910390fd5b5b8290506114b7565b6114b683836114bf565b5b949350505050565b6000825111156114d25781518083602001fd5b806040517f08c379a00000000000000000000000000000000000000000000000000000000081526004016115069190612ac0565b60405180910390fd5b828054828255906000526020600020908101928215611588579160200282015b828111156115875782518260006101000a81548173ffffffffffffffffffffffffffffffffffffffff021916908373ffffffffffffffffffffffffffffffffffffffff1602179055509160200191906001019061152f565b5b5090506115959190611599565b5090565b5b808211156115b257600081600090555060010161159a565b5090565b6000604051905090565b600080fd5b600080fd5b6000819050919050565b6115dd816115ca565b81146115e857600080fd5b50565b6000813590506115fa816115d4565b92915050565b600060208284031215611616576116156115c0565b5b6000611624848285016115eb565b91505092915050565b611636816115ca565b82525050565b60008115159050919050565b6116518161163c565b82525050565b600060808201905061166c600083018761162d565b611679602083018661162d565b611686604083018561162d565b6116936060830184611648565b95945050505050565b600073ffffffffffffffffffffffffffffffffffffffff82169050919050565b60006116c78261169c565b9050919050565b6116d7816116bc565b81146116e257600080fd5b50565b6000813590506116f4816116ce565b92915050565b6000602082840312156117105761170f6115c0565b5b600061171e848285016116e5565b91505092915050565b600080fd5b600080fd5b6000601f19601f8301169050919050565b7f4e487b7100000000000000000000000000000000000000000000000000000000600052604160045260246000fd5b61177a82611731565b810181811067ffffffffffffffff8211171561179957611798611742565b5b80604052505050565b60006117ac6115b6565b90506117b88282611771565b919050565b600067ffffffffffffffff8211156117d8576117d7611742565b5b6117e182611731565b9050602081019050919050565b82818337600083830152505050565b600061181061180b846117bd565b6117a2565b90508281526020810184848401111561182c5761182b61172c565b5b6118378482856117ee565b509392505050565b600082601f83011261185457611853611727565b5b81356118648482602086016117fd565b91505092915050565b60008060408385031215611884576118836115c0565b5b6000611892858286016116e5565b925050602083013567ffffffffffffffff8111156118b3576118b26115c5565b5b6118bf8582860161183f565b9150509250929050565b6000819050919050565b6118dc816118c9565b82525050565b60006020820190506118f760008301846118d3565b92915050565b60008060408385031215611914576119136115c0565b5b6000611922858286016115eb565b9250506020611933858286016115eb565b9150509250929050565b60008060008060808587031215611957576119566115c0565b5b6000611965878288016115eb565b9450506020611976878288016115eb565b9350506040611987878288016115eb565b9250506060611998878288016115eb565b91505092959194509250565b600081519050919050565b600082825260208201905092915050565b6000819050602082019050919050565b6119d9816115ca565b82525050565b600081519050919050565b600082825260208201905092915050565b6000819050602082019050919050565b611a14816116bc565b82525050565b6000611a268383611a0b565b60208301905092915050565b6000602082019050919050565b6000611a4a826119df565b611a5481856119ea565b9350611a5f836119fb565b8060005b83811015611a90578151611a778882611a1a565b9750611a8283611a32565b925050600181019050611a63565b5085935050505092915050565b611aa68161163c565b82525050565b600060a083016000830151611ac460008601826119d0565b506020830151611ad760208601826119d0565b5060408301518482036040860152611aef8282611a3f565b9150506060830151611b0460608601826119d0565b506080830151611b176080860182611a9d565b508091505092915050565b6000611b2e8383611aac565b905092915050565b6000602082019050919050565b6000611b4e826119a4565b611b5881856119af565b935083602082028501611b6a856119c0565b8060005b85811015611ba65784840389528151611b878582611b22565b9450611b9283611b36565b925060208a01995050600181019050611b6e565b50829750879550505050505092915050565b60006020820190508181036000830152611bd28184611b43565b905092915050565b600082825260208201905092915050565b6000611bf6826119df565b611c008185611bda565b9350611c0b836119fb565b8060005b83811015611c3c578151611c238882611a1a565b9750611c2e83611a32565b925050600181019050611c0f565b5085935050505092915050565b60006020820190508181036000830152611c638184611beb565b905092915050565b600082825260208201905092915050565b7f46756e6374696f6e206d7573742062652063616c6c6564207468726f7567682060008201527f64656c656761746563616c6c0000000000000000000000000000000000000000602082015250565b6000611cd8602c83611c6b565b9150611ce382611c7c565b604082019050919050565b60006020820190508181036000830152611d0781611ccb565b9050919050565b7f46756e6374696f6e206d7573742062652063616c6c6564207468726f7567682060008201527f6163746976652070726f78790000000000000000000000000000000000000000602082015250565b6000611d6a602c83611c6b565b9150611d7582611d0e565b604082019050919050565b60006020820190508181036000830152611d9981611d5d565b9050919050565b7f555550535570677261646561626c653a206d757374206e6f742062652063616c60008201527f6c6564207468726f7567682064656c656761746563616c6c0000000000000000602082015250565b6000611dfc603883611c6b565b9150611e0782611da0565b604082019050919050565b60006020820190508181036000830152611e2b81611def565b9050919050565b7f696e76616c696420494400000000000000000000000000000000000000000000600082015250565b6000611e68600a83611c6b565b9150611e7382611e32565b602082019050919050565b60006020820190508181036000830152611e9781611e5b565b9050919050565b7f4e487b7100000000000000000000000000000000000000000000000000000000600052603260045260246000fd5b7f67616d6520656e64656400000000000000000000000000000000000000000000600082015250565b6000611f03600a83611c6b565b9150611f0e82611ecd565b602082019050919050565b60006020820190508181036000830152611f3281611ef6565b9050919050565b7f67616d6520657870697265640000000000000000000000000000000000000000600082015250565b6000611f6f600c83611c6b565b9150611f7a82611f39565b602082019050919050565b60006020820190508181036000830152611f9e81611f62565b9050919050565b7f4e487b7100000000000000000000000000000000000000000000000000000000600052601160045260246000fd5b6000611fdf826115ca565b9150611fea836115ca565b925082820390508181111561200257612001611fa5565b5b92915050565b7f6e756d5469636b6574732065786365656420617661696c61626c65207469636b60008201527f6574730000000000000000000000000000000000000000000000000000000000602082015250565b6000612064602383611c6b565b915061206f82612008565b604082019050919050565b6000602082019050818103600083015261209381612057565b9050919050565b60006120a5826115ca565b91506120b0836115ca565b92508282026120be816115ca565b915082820484148315176120d5576120d4611fa5565b5b5092915050565b7f796f75206d7573742073656e6420746865206578616374207469636b6574207060008201527f7269636500000000000000000000000000000000000000000000000000000000602082015250565b6000612138602483611c6b565b9150612143826120dc565b604082019050919050565b600060208201905081810360008301526121678161212b565b9050919050565b6000612179826115ca565b91507fffffffffffffffffffffffffffffffffffffffffffffffffffffffffffffffff82036121ab576121aa611fa5565b5b600182019050919050565b7f67616d6520686173206e6f742065787069726564000000000000000000000000600082015250565b60006121ec601483611c6b565b91506121f7826121b6565b602082019050919050565b6000602082019050818103600083015261221b816121df565b9050919050565b7f7072697a6520686173206265656e206469737472696275746564000000000000600082015250565b6000612258601a83611c6b565b915061226382612222565b602082019050919050565b600060208201905081810360008301526122878161224b565b9050919050565b7f6361706163697479206d7573742062652067726561746572207468616e203100600082015250565b60006122c4601f83611c6b565b91506122cf8261228e565b602082019050919050565b600060208201905081810360008301526122f3816122b7565b9050919050565b7f7469636b65742070726963652063616e2774206265207a65726f000000000000600082015250565b6000612330601a83611c6b565b915061233b826122fa565b602082019050919050565b6000602082019050818103600083015261235f81612323565b9050919050565b7f63726561746f72206d757374207075726368617365206174206c65617374203160008201527f207469636b657400000000000000000000000000000000000000000000000000602082015250565b60006123c2602783611c6b565b91506123cd82612366565b604082019050919050565b600060208201905081810360008301526123f1816123b5565b9050919050565b7f657870697279206d75737420626520696e207468652066757475726500000000600082015250565b600061242e601c83611c6b565b9150612439826123f8565b602082019050919050565b6000602082019050818103600083015261245d81612421565b9050919050565b7f6e6f7420617574686f72697a65642c2061646d696e206f6e6c79000000000000600082015250565b600061249a601a83611c6b565b91506124a582612464565b602082019050919050565b600060208201905081810360008301526124c98161248d565b9050919050565b6124d9816118c9565b81146124e457600080fd5b50565b6000815190506124f6816124d0565b92915050565b600060208284031215612512576125116115c0565b5b6000612520848285016124e7565b91505092915050565b7f45524331393637557067726164653a206e657720696d706c656d656e7461746960008201527f6f6e206973206e6f742055555053000000000000000000000000000000000000602082015250565b6000612585602e83611c6b565b915061259082612529565b604082019050919050565b600060208201905081810360008301526125b481612578565b9050919050565b7f45524331393637557067726164653a20756e737570706f727465642070726f7860008201527f6961626c65555549440000000000000000000000000000000000000000000000602082015250565b6000612617602983611c6b565b9150612622826125bb565b604082019050919050565b600060208201905081810360008301526126468161260a565b9050919050565b6000819050919050565b612668612663826115ca565b61264d565b82525050565b600081549050919050565b600081905092915050565b60008190508160005260206000209050919050565b6126a2816116bc565b82525050565b60006126b48383612699565b60208301905092915050565b60008160001c9050919050565b600073ffffffffffffffffffffffffffffffffffffffff82169050919050565b60006127006126fb836126c0565b6126cd565b9050919050565b600061271382546126ed565b9050919050565b6000600182019050919050565b60006127328261266e565b61273c8185612679565b935061274783612684565b8060005b8381101561277f5761275c82612707565b61276688826126a8565b97506127718361271a565b92505060018101905061274b565b5085935050505092915050565b60006127988286612657565b6020820191506127a88285612727565b91506127b48284612657565b602082019150819050949350505050565b7f4e487b7100000000000000000000000000000000000000000000000000000000600052601260045260246000fd5b60006127ff826115ca565b915061280a836115ca565b92508261281a576128196127c5565b5b828206905092915050565b61282e816116bc565b82525050565b60006020820190506128496000830184612825565b92915050565b600081905092915050565b50565b600061286a60008361284f565b91506128758261285a565b600082019050919050565b600061288b8261285d565b9150819050919050565b7f70726f626c656d2077697468207061796d656e74000000000000000000000000600082015250565b60006128cb601483611c6b565b91506128d682612895565b602082019050919050565b600060208201905081810360008301526128fa816128be565b9050919050565b7f455243313936373a206e657720696d706c656d656e746174696f6e206973206e60008201527f6f74206120636f6e747261637400000000000000000000000000000000000000602082015250565b600061295d602d83611c6b565b915061296882612901565b604082019050919050565b6000602082019050818103600083015261298c81612950565b9050919050565b600081519050919050565b60005b838110156129bc5780820151818401526020810190506129a1565b60008484015250505050565b60006129d382612993565b6129dd818561284f565b93506129ed81856020860161299e565b80840191505092915050565b6000612a0582846129c8565b915081905092915050565b7f416464726573733a2063616c6c20746f206e6f6e2d636f6e7472616374000000600082015250565b6000612a46601d83611c6b565b9150612a5182612a10565b602082019050919050565b60006020820190508181036000830152612a7581612a39565b9050919050565b600081519050919050565b6000612a9282612a7c565b612a9c8185611c6b565b9350612aac81856020860161299e565b612ab581611731565b840191505092915050565b60006020820190508181036000830152612ada8184612a87565b90509291505056fe416464726573733a206c6f772d6c6576656c2064656c65676174652063616c6c206661696c6564a2646970667358221220ce13b897a54a8197e257eda119e7f33876e2a3f4278a39bc841b7270a301a1c064736f6c63430008120033",
  "linkReferences": {},
  "deployedLinkReferences": {}
}